:020000040800F2
:1000000000000220C9810008090D0008110D000838
:10001000190D0008210D0008290D0008000000003E
:10002000000000000000000000000000310D00088A
:100030003F0D0008000000004D0D00085B0D00089A
:100040001D8200081D8200081D8200081D82000814
:100050001D8200081D8200081D8200081D82000804
:100060001D8200081D8200081D8200081D820008F4
:100070001D8200081D8200081D8200081D820008E4
:100080001D8200081D8200081D8200081D820008D4
:100090001D8200081D8200081D8200081D820008C4
:1000A0001D8200081D8200081D8200081D820008B4
:1000B0001D8200081D8200081D8200081D820008A4
:1000C0001D8200081D8200081D8200081D82000894
:1000D0001D8200081D8200081D8200081D82000884
:1000E0001D8200081D820008000000001D8200081B
:1000F0001D8200081D8200081D8200081D82000864
:100100001D8200081D8200081D8200081D82000853
:100110001D8200081D8200081D8200081D82000843
:100120001D8200081D8200081D8200081D82000833
:100130001D8200081D8200081D8200081D82000823
:1001400000000000000000000000000000000000AF
:100150001D8200081D8200081D8200081D82000803
:100160001D8200081D8200081D8200081D820008F3
:100170001D8200081D8200081D8200081D820008E3
:100180001D8200081D8200081D8200081D820008D3
:100190001D8200081D8200081D8200081D820008C3
:1001A0001D8200081D8200081D8200081D820008B3
:1001B0001D8200081D8200081D8200081D820008A3
:1001C0001D8200081D8200081D8200081D82000893
:1001D0001D8200081D8200081D8200081D82000883
:1001E0001D8200081D8200081D8200081D82000873
:1001F0001D8200081D8200081D8200081D82000863
:100200001D8200081D8200081D8200081D82000852
:100210001D8200081D8200081D8200081D82000842
:100220001D8200081D8200081D82000800000000D9
:100230001D8200081D820008000000001D820008C9
:100240001D8200081D8200081D8200081D82000812
:100250001D8200081D8200081D8200081D82000802
:100260001D8200081D8200081D8200081D820008F2
:100270001D8200081D8200081D8200080000000089
:100280001D8200081D8200081D8200080000000079
:08029000000000001D820008BF
:1002A00053B94AB9002908BF00281CBF4FF0FF31DD
:1002B0004FF0FF3000F00CB8ADF1080C6DE904CE42
:1002C00007F0AEFFDDF804E0DDE9022304B070477B
:1002D000704700BF034613F8012B002AFBD1181A00
:1002E000013870470000000000000000000000001E
:1002F00001F0FF01102A2BDB10F0070F08D010F8D7
:10030000013B013A8B422DD010F0070F42B3F6D1DA
:10031000F0B441EA012141EA014122F007047FF0F3
:1003200000070023F0E80256083C85EA010586EA4A
:10033000010685FA47F5A3FA87F586FA47F6A5FA86
:1003400087F68EB9EED1F0BC01F0FF0102F0070292
:1003500032B110F8013B013A83EA010313B1F8D13D
:100360000020704701387047002D06BF354603381E
:10037000073815F0010F07D1013015F4807F02BF57
:10038000013015F4C03F0130F0BC0138704700BFA8
:100390000348044B834202D0034B03B11847704714
:1003A0006000002060000020000000000548064BAF
:1003B0001B1AD90F01EBA301491002D0034B03B163
:1003C0001847704760000020600000200000000017
:1003D00010B5064C237843B9FFF7DAFF044B13B18D
:1003E0000448AFF300800123237010BD600000209B
:1003F00000000000F88B000808B5054B1BB105494B
:100400000548AFF30080BDE80840FFF7CFBF00BF4D
:100410000000000064000020F88B0008024403463E
:10042000934200D1704703F8011BF9E770B50D4BFB
:100430000D4D5B1B9C100026A64209D108F0DCFB89
:100440000A4D0B4B5B1B9C100026A64205D170BDCC
:1004500055F8043B98470136EEE755F8043B9847BA
:100460000136F2E7BC8C0008BC8C0008BC8C00088C
:10047000C08C00087047704738B50546002941D048
:1004800051F8043C0C1F002BB8BFE41800F0E0F852
:100490001D4A136833B9636014602846BDE83840CC
:1004A00000F0DCB8A34208D9206821188B4201BFB4
:1004B00019685B6809182160EDE71A465B680BB1A3
:1004C000A342FAD911685018A0420BD12068014408
:1004D000501883421160E0D118685B68536008448B
:1004E0001060DAE702D90C232B60D6E720682118C8
:1004F0008B4204BF19685B68636004BF0918216000
:100500005460CAE738BD00BFC001002070B50F4E6F
:100510000C463168054611B900F0A6F83060214656
:10052000284600F0A1F8431C03D14FF0FF342046C9
:1005300070BDC41C24F00304A042F8D0211A284640
:1005400000F092F80130F2D1EFE700BFBC010020CB
:100550002DE9F843CD1C25F0030508350C2D38BFD7
:100560000C25002D064601DBA94204D90C2333607B
:100570000020BDE8F883DFF8D48000F069F8D8F8EF
:1005800000301C4644BB29463046FFF7BFFF431CE2
:10059000044658D1D8F800402746002F43D1002CFC
:1005A0004BD023683946304604EB030900F05CF871
:1005B000814542D121686D1A29463046FFF7A6FFD2
:1005C00001303AD023682B442360D8F800305A68B1
:1005D00062BBC8F800700FE02268521B20D40B2ABF
:1005E00017D96119A342256018BF5960636808BF15
:1005F000C8F8001062514B60304600F02FF804F14B
:100600000B00231D20F00700C21A1CBF1B1AA350A9
:10061000AFE76268A3420CBFC8F800205A60EBE75E
:1006200023466468AEE73C467F68B6E71A465B68D7
:10063000A342FBD100235360DEE70C233360304636
:1006400000F00CF894E70560D6E700BFC001002079
:100650000148FFF70FBF00BFB80100200148FFF7B6
:100660000ABF00BFB801002038B5064D002304467C
:1006700008462B6007F072FD431C02D12B6803B1C2
:10068000236038BDB4010020B0B588B002AF00F0DF
:1006900009FB06F04BF900F0B9F800F029F900F079
:1006A000C9FA00F055F900F079FA00F037FA00F0D5
:1006B000CBF940F2FF720021494801F0CBFF03461D
:1006C000002B01D000F01AFB40F2FF7200214548D8
:1006D00001F0C0FF0346002B01D000F00FFB6420A7
:1006E00006F0B6F9404B3C461D460FCD0FC495E8C9
:1006F000030020600434218002340B0C23703B463D
:100700001846FFF7E7FD03469AB239466423374897
:1007100006F051FB324801F091F86421304801F0B5
:1007200057F90346002B17D12D4801F045FA03462F
:100730009AB22F4B1A802E4B1B881A4640F6E44380
:1007400002FB03F32B4A82FB03121A44D213DB177A
:10075000D31A1A46284B1A60224801F06FF8642118
:10076000204801F035F90346002B17D11D4801F050
:1007700023FA03469AB2214B1A80204B1B881A4653
:1007800040F6E44302FB03F31A4A82FB03121A44C5
:10079000D213DB17D31A1A46194B1A60144B1B8855
:1007A0001846154B1A68154B1B881946144B1B68C5
:1007B00001930091134602461249134807F0ACFE1C
:1007C0001148FFF787FD03469AB264230E49074894
:1007D00006F0F1FA4FF4FA7006F03AF99AE700BF22
:1007E000C401002028020020308C0008E002002014
:1007F0007403002001800080AC03002076030020F9
:10080000B0030020108C00087803002080B59CB055
:1008100000AF07F124034C2200211846FFF7FEFD2C
:100820003B1D202200211846FFF7F8FD022005F0AD
:10083000E7FE00233B602B4BDB6A2A4A23F00103CF
:10084000D362284BDB6A03F001033B60264B9B69B4
:1008500023F44043244A43F480439361224B9B6931
:1008600003F440433B603B6800BF1F4B9B6903F4AC
:100870000053B3F5005FF8D11C4B9B6A1B4A23F071
:100880000303936202237B6201233B6340237B6368
:100890000023BB6407F12403184602F01DF8034649
:1008A000002B01D000F02AFA3F237B600023BB60BD
:1008B0000023FB6000233B6100237B614023BB617D
:1008C0000023FB6100233B623B1D0121184602F01F
:1008D0005DFC0346002B01D000F010FA00BF70371A
:1008E000BD4680BD0004005800480258004402582C
:1008F00080B5B0B000AF3B46C02200211846FFF7DC
:100900008DFD4FF400224FF00003C7E900230423BC
:10091000BB600A23FB6002233B6102237B6102234D
:10092000BB61C023FB6120233B6200237B62002369
:10093000C7F8A4303B46184602F0B4FF0346002B2C
:1009400001D000F0DBF900BFC037BD4680BD00001C
:1009500080B58AB000AF07F11C0300221A605A600C
:100960009A603B4600221A605A609A60DA601A6107
:100970005A619A61314B324A1A60304B4FF48022EF
:100980005A602E4B00229A602C4B0022DA602B4BCF
:1009900004221A61294B00221A75284B00225A752D
:1009A000264B01229A61254B00221A77234B002205
:1009B0005A62224B00229A62204B0022DA621F4BBD
:1009C00000221A631D4B00225A631C4B002283F83D
:1009D00038201A4B0122DA63184800F08DFD0346D7
:1009E000002B01D000F08AF90023FB6107F11C0302
:1009F0001946124801F092FE0346002B01D000F088
:100A00007DF9104B3B6006237B600023BB6040F206
:100A1000FF73FB6004233B6100237B6100237B7633
:100A20003B461946054801F0D5F80346002B01D096
:100A300000F064F900BF2837BD4680BDC401002026
:100A4000002002400000B84F80B588B000AF3B1DC9
:100A500000221A605A609A60DA601A615A619A61DB
:100A60002B4B2C4A1A602A4B4FF480225A60284B99
:100A700000229A60264B0022DA60254B04221A617C
:100A8000234B00221A75224B00225A75204B01225B
:100A90009A611F4B00221A771D4B00225A621C4B91
:100AA00000229A621A4B0022DA62194B00221A6362
:100AB000174B00225A63164B002283F83820144B40
:100AC0000122DA63124800F017FD0346002B01D023
:100AD00000F014F9104B7B600623BB600023FB6021
:100AE00040F2FF733B6104237B610023BB61002361
:100AF0007B773B1D1946064801F06CF80346002B36
:100B000001D000F0FBF800BF2037BD4680BD00BF1C
:100B100028020020002102408000501D80B500AF57
:100B20001B4B1C4A1A601A4B1B4A5A60184B002276
:100B30009A60174B0122DA60154B00221A61144BA0
:100B400000225A61124B00229A61114B0022DA6195
:100B50000F4B00221A620E4805F0AAFF0346002B35
:100B600001D000F0CBF80021094806F03DF803461B
:100B7000002B01D000F0C2F80021054806F07FF8F4
:100B80000346002B01D000F0B9F800BF80BD00BFC4
:100B90008C02002000540040BB7C700080B500AF88
:100BA000224B234A1A60214B4FF4E1325A601F4B0B
:100BB00000229A601D4B0022DA601C4B00221A6151
:100BC0001A4B0C225A61194B00229A61174B0022D2
:100BD000DA61164B00221A62144B00225A62134B40
:100BE00000229A62114806F096F80346002B01D0C5
:100BF00000F084F800210D4807F02DF90346002B82
:100C000001D000F07BF80021084807F062F90346A4
:100C1000002B01D000F072F8044807F0E3F8034617
:100C2000002B01D000F06AF800BF80BDE002002078
:100C3000004C004080B485B000AF194BD3F8E030D1
:100C4000174A43F08003C2F8E030154BD3F8E03088
:100C500003F08003FB60FB68114BD3F8E030104ACF
:100C600043F00103C2F8E0300D4BD3F8E03003F05D
:100C70000103BB60BB680A4BD3F8E030084A43F07D
:100C80000203C2F8E030064BD3F8E03003F0020371
:100C90007B607B6800BF1437BD465DF8047B7047FE
:100CA0000044025880B584B000AF3B4600221A6071
:100CB0005A609A60DA6005F0C1FD01233B700023A1
:100CC0007B7000237B601F233B7287237B72002392
:100CD000BB720023FB7201233B7301237B73002350
:100CE000BB730023FB733B46184605F0DFFD042071
:100CF00005F0BCFD00BF1037BD4680BD80B400AF1D
:100D000072B600BF00BFFDE780B400AF00BFFDE7D3
:100D100080B400AF00BFFDE780B400AF00BFFDE7C7
:100D200080B400AF00BFFDE780B400AF00BFFDE7B7
:100D300080B400AF00BFBD465DF8047B704780B44F
:100D400000AF00BFBD465DF8047B704780B400AFC4
:100D500000BFBD465DF8047B704780B500AF05F06D
:100D600057FE00BF80BD000080B483B000AF0A4BC7
:100D7000D3F8F430084A43F00203C2F8F430064BCB
:100D8000D3F8F43003F002037B607B6800BF0C37BC
:100D9000BD465DF8047B70470044025880B58CB0B6
:100DA00000AF786007F11C0300221A605A609A6055
:100DB000DA601A617B681B68394A934233D1394B38
:100DC0001B680133374A1360364B1B68012B0ED169
:100DD000354BD3F8D830344A43F02003C2F8D8302A
:100DE000314BD3F8D83003F02003BB61BB692E4BE5
:100DF000D3F8E0302C4A43F00103C2F8E0302A4B2C
:100E0000D3F8E03003F001037B617B692023FB61B1
:100E100003233B6200237B6207F11C03194623482E
:100E200005F03EFA37E07B681B68214A934232D1D5
:100E30001C4B1B6801331B4A13601A4B1B68012BA8
:100E40000ED1194BD3F8D830174A43F02003C2F81B
:100E5000D830154BD3F8D83003F020033B613B6901
:100E6000114BD3F8E030104A43F00103C2F8E030F0
:100E70000D4BD3F8E03003F00103FB60FB688023E7
:100E8000FB6103233B6200237B6207F11C031946CD
:100E9000064805F005FA00BF3037BD4680BD00BFEB
:100EA00000200240B4030020004402580000025811
:100EB0000021024080B5BAB000AF786007F1D403DA
:100EC00000221A605A609A60DA601A6107F1100312
:100ED000C02200211846FFF7A1FA7B681B68264A4A
:100EE000934245D14FF008024FF00003C7E90423B5
:100EF0000023C7F8943007F11003184602F0D2FC23
:100F00000346002B01D0FFF7F9FE1C4BD3F8E0306D
:100F10001A4A43F00203C2F8E030184BD3F8E0302D
:100F200003F00203FB60FB68C023C7F8D430122330
:100F3000C7F8D8300023C7F8DC300023C7F8E0300A
:100F40000423C7F8E43007F1D40319460C4805F030
:100F5000A7F90A4BD3F8E830084A43F40013C2F863
:100F6000E830064BD3F8E83003F40013BB60BB68ED
:100F700000BFE837BD4680BD005400400044025821
:100F80000004025880B5BAB000AF786007F1D4030E
:100F900000221A605A609A60DA601A6107F1100341
:100FA000C02200211846FFF739FA7B681B68314AD6
:100FB00093425BD14FF002024FF00003C7E90423D4
:100FC0000023C7F8883007F11003184602F06AFCC6
:100FD0000346002B01D0FFF791FE274BD3F8E830F2
:100FE000254A43F40023C2F8E830234BD3F8E83015
:100FF00003F40023FB60FB681F4BD3F8E0301E4A6C
:1010000043F00103C2F8E0301B4BD3F8E03003F0AB
:101010000103BB60BB680123C7F8D4300223C7F8C3
:10102000D8300023C7F8DC300023C7F8E0300823AD
:10103000C7F8E43007F1D4031946104805F030F939
:101040004FF40063C7F8D4300223C7F8D830002328
:10105000C7F8DC300023C7F8E0300623C7F8E430D7
:1010600007F1D4031946054805F01AF900BFE8371F
:10107000BD4680BD004C00400044025800000258AC
:1010800080B483B000AF786039607B689B6823F4DC
:101090007C123B681A437B689A6000BF0C37BD46E0
:1010A0005DF8047B704780B483B000AF786039602E
:1010B0007B689B6823F0E0723B681A437B689A6008
:1010C00000BF0C37BD465DF8047B704780B483B029
:1010D00000AF78607B689B6803F0E07318460C37BC
:1010E000BD465DF8047B704780B487B000AF786080
:1010F00039603B68C3F31303002B07D13B689B0E99
:1011000003F01F03012202FA03F315E03B683B6181
:101110003B6993FAA3F3FB60FB687B617B69002B5F
:1011200001D1202303E07B69B3FA83F3DBB203F040
:101130001F03012202FA03F37A68D2691A437B681B
:10114000DA6100BF1C37BD465DF8047B704780B490
:1011500087B000AFF860B9607A603B60FB686033CD
:101160001A46BB689B0013447B617B691B6803F0D4
:1011700000427B6803F0F8413B680B431A437B69EC
:101180001A6000BF1C37BD465DF8047B704780B411
:1011900085B000AFF860B9607A60FB681B6923F422
:1011A000F042BB6803F01F03796801FA03F31A43A6
:1011B000FB681A6100BF1437BD465DF8047B7047B9
:1011C00080B487B000AFF860B9607A60FB686033C4
:1011D0001A46BB689B0013447B617B691B6823F044
:1011E00000427B681A437B691A6000BF1C37BD460A
:1011F0005DF8047B704780B483B000AF78607B6893
:10120000DB6803F44063002B01D1012300E00023DD
:1012100018460C37BD465DF8047B704780B487B034
:1012200000AFF860B9607A60FB6830331A46BB687B
:101230001B0A9B0003F00C0313447B617B691A6853
:10124000BB6803F01F031F2101FA03F3DB431A40BD
:101250007B689B0E03F01F01BB6803F01F0301FABC
:1012600003F31A437B691A6000BF1C37BD465DF863
:10127000047B704780B487B000AFF860B9607A60D3
:10128000FB6814331A46BB685B0E9B0003F0040333
:1012900013447B617B691A68BB681B0D03F01F0355
:1012A000072101FA03F3DB431A40BB681B0D03F06F
:1012B0001F03796801FA03F31A437B691A6000BFC0
:1012C0001C37BD465DF8047B7047000080B485B0D4
:1012D00000AFF860B9607A60FB68D3F8C020BB68E3
:1012E000C3F31303DB431A407B6803F01803084978
:1012F000D940BB680B40C3F313031A43FB68C3F820
:10130000C02000BF1437BD465DF8047B704700BFA6
:10131000FFFF0F0080B483B000AF78607B689B68EC
:1013200003F01F0318460C37BD465DF8047B704779
:1013300080B483B000AF78607B689B6803F440435F
:1013400018460C37BD465DF8047B704780B483B007
:1013500000AF78607B689A68044B13407A689360AA
:1013600000BF0C37BD465DF8047B7047C0FFFF5FD0
:1013700080B483B000AF78607B689B6803F0005353
:10138000B3F1005F01D1012300E0002318460C37C0
:10139000BD465DF8047B704780B483B000AF7860D1
:1013A0007B689A68054B134043F080527B689A60D3
:1013B00000BF0C37BD465DF8047B7047C0FFFF6F70
:1013C00080B483B000AF78607B689B6803F0805383
:1013D000B3F1805F01D1012300E0002318460C37F0
:1013E000BD465DF8047B704780B483B000AF786081
:1013F0007B689A68054B134043F001027B689A6052
:1014000000BF0C37BD465DF8047B7047C0FFFF7F0F
:1014100080B483B000AF78607B689A68054B134056
:1014200043F002027B689A6000BF0C37BD465DF84E
:10143000047B7047C0FFFF7F80B483B000AF78604B
:101440007B689B6803F00103012B01D1012300E0BD
:10145000002318460C37BD465DF8047B704780B406
:1014600083B000AF78607B689B6803F00203022BB7
:1014700001D1012300E0002318460C37BD465DF87A
:10148000047B704780B483B000AF78607B689A6853
:10149000054B134043F004027B689A6000BF0C3791
:1014A000BD465DF8047B7047C0FFFF7F80B483B00A
:1014B00000AF78607B689B6803F00403042B01D1C4
:1014C000012300E0002318460C37BD465DF8047B7D
:1014D000704780B483B000AF78607B689B6803F08E
:1014E0000803082B01D1012300E0002318460C3724
:1014F000BD465DF8047B704790B589B000AF786059
:101500000023FB770023BB607B68002B01D1012304
:101510008FE17B68DB68002B7B685B6D002B09D15A
:101520007868FFF73BFC7B6800229A657B680022A5
:1015300083F850207B681B681846FFF719FF0346A5
:10154000002B04D07B681B681846FFF7FFFE7B6802
:101550001B681846FFF734FF0346002B14D17B6845
:101560001B681846FFF718FF874B1B689B09874AC3
:10157000A2FB03239B090133BB6002E0BB68013B74
:10158000BB60BB68002BF9D17B681B681846FFF76E
:1015900017FF0346002B0DD17B685B6D43F01002F3
:1015A0007B685A657B689B6D43F001027B689A6596
:1015B0000123FB777B681B681846FFF777FF78618C
:1015C0007B685B6D03F01003002B40F029817B6981
:1015D000002B40F025817B685B6D23F4817343F021
:1015E00002027B685A657B681B681846FFF724FF78
:1015F0000346002B36D17B681B68654A934204D0B2
:101600007B681B68634A93420ED16148FFF714FF61
:1016100004466048FFF710FF03462343002B0CBF2E
:1016200001230023DBB208E05B48FFF705FF034618
:10163000002B0CBF01230023DBB2002B12D07B68F0
:101640001B68534A934204D07B681B68514A9342FB
:1016500001D1524A00E0524A7B685B681946104645
:10166000FFF70EFD05F018FA034641F2030293421C
:1016700014D97B689B68102B10D17B685B7D5A0363
:101680007B681B6B1A437B689B681A437B681B7FD4
:101690001B04134343F00C03BB610DE07B685B7DCF
:1016A0005A037B681B6B1A437B689B681A437B68F1
:1016B0001B7F1B041343BB617B681B7F012B06D17F
:1016C0007B681B6A013B5B04BA691343BB617B689F
:1016D0005B6A002B09D07B685B6A03F478727B68D5
:1016E0009B6A1343BA691343BB617B681B68DA6862
:1016F0002C4B13407A681268B9690B43D3607B683E
:101700001B681846FFF7D2FE38617B681B681846D5
:10171000FFF7DFFEF8603B69002B5FD1FB68002B11
:101720005CD17B681B7D9A037B68DB6A1343BB61DA
:101730007B681B68DA681C4B13407A681268B969C9
:101740000B43D3607B6893F83830012B30D17B6832
:101750005B6A002B7B681B681A69144B13407A681C
:10176000D26B013A11047A68126C11437A68526C98
:1017700011437A68926C0A431A437B681B6842F0F3
:1017800001021A611CE000BF58000020632D3E05D5
:101790000020024000210240006002580023024065
:1017A0000063025803C0F0FFFCBFFFFF1EF800FCFF
:1017B0007B681B681A697B681B6822F001021A614A
:1017C0007B681B681B6923F070417B685A6B7B68E0
:1017D0001B680A431A61786800F0D6FD7B68DB68F5
:1017E000012B0CD17B681B681B6B23F00F017B68FE
:1017F0009B695A1E7B681B680A431A6307E07B6873
:101800001B681A6B7B681B6822F00F021A637B68E7
:101810005B6D23F0030343F001027B685A6507E028
:101820007B685B6D43F010027B685A650123FB7790
:10183000FB7F18462437BD4690BD00BF80B586B0FB
:1018400000AF78607B681B685C4A934204D07B6879
:101850001B685B4A934201D15A4B00E05A4B184631
:10186000FFF758FD38617B681B681846FFF71EFEBE
:101870000346002B40F09A807B6893F85030012B90
:1018800001D1022395E07B68012283F8502078681B
:1018900000F090FC0346FB75FB7D002B40F081803F
:1018A0007B685A6D494B134043F480727B685A65DC
:1018B0007B681B68424A934202D07B681B6800E049
:1018C0003E4B7A681268934202D03B69002B05D1E7
:1018D0007B685B6D23F480127B685A657B685B6D67
:1018E00003F48053B3F5805F06D17B689B6D23F0D2
:1018F00006027B689A6502E07B6800229A657B6835
:101900001B681C221A607B68002283F850207B68C9
:101910001B682B4A934202D07B681B6800E0274B70
:101920007A681268934208D03B69002B05D03B6966
:10193000052B02D03B69092B14D17B681B68DB683F
:1019400003F00073002B07D07B685B6D23F44053DA
:1019500043F480527B685A657B681B681846FFF722
:1019600091FD25E07B685B6D43F480127B685A65CE
:101970007B681B68124A934202D07B681B6800E0B8
:101980000E4BFB60FB68DB6803F00073002B0FD08D
:101990007B685B6D23F4405343F480527B685A6547
:1019A00006E07B68002283F8502001E00223FB75EB
:1019B000FB7D18461837BD4680BD00BF00200240A1
:1019C000002102400023024000630258FEF0FFFFA6
:1019D00080B588B000AF786039607B681B68724A58
:1019E000934204D07B681B68704A934201D1704BCC
:1019F00000E0704B1846FFF78DFC78617B681B692F
:101A0000082B02D10823FB6137E07B69002B05D04E
:101A10007B69052B02D07B69092B11D17B681B6880
:101A2000DB6803F00103002B07D07B685B6D43F09C
:101A300020027B685A650123B1E00423FB611CE0AE
:101A40007B681B68584A934204D07B681B68574ADE
:101A5000934201D1564B00E0564B1846FFF768FC05
:101A60000346002B07D07B685B6D43F020027B6848
:101A70005A65012393E00423FB6104F0DDFF386124
:101A800021E03B68B3F1FF3F1DD004F0D5FF0246D3
:101A90003B69D31A3A689A4202D33B68002B12D1B1
:101AA0007B681B681A68FB691340002B0BD17B68AD
:101AB0005B6D43F004027B685A657B68002283F803
:101AC000502003236BE07B681B681A68FB69134096
:101AD000002BD6D07B685B6D43F400727B685A653F
:101AE0007B681B681846FFF786FB0346002B1CD05B
:101AF0007B685B7D002B18D17B681B681B6803F03B
:101B00000803082B11D17B685B6D23F480727B681E
:101B10005A657B685B6D03F48053002B05D17B68AD
:101B20005B6D43F001027B685A657B681B681F4A46
:101B3000934202D07B681B6800E01B4B7A681268F6
:101B4000934208D07B69002B05D07B69052B02D01E
:101B50007B69092B04D17B681B68DB68BB610CE0E7
:101B60007B681B68114A934202D07B681B6800E0C7
:101B70000D4BFB60FB68DB68BB61FB69082B04D184
:101B80007B681B6808221A6008E0BB6903F4804385
:101B9000002B03D17B681B680C221A6000231846B7
:101BA0002037BD4680BD00BF00200240002102401A
:101BB000002302400063025880B483B000AF786015
:101BC0007B681B681B6C18460C37BD465DF8047BB0
:101BD0007047000090B58DB000AF78603960002389
:101BE00087F82F300023FB603B68DB68654A93422F
:101BF0007B6893F85030012B01D10223C7E27B6848
:101C0000012283F850207B681B681846FFF74EFCC2
:101C10000346002B40F0AC823B681B68002B2CDB9A
:101C20003B681B68C3F31303002B08D13B681B6898
:101C30009B0E03F01F03012202FA03F316E03B6838
:101C40001B687B617B6993FAA3F33B613B69BB61D2
:101C5000BB69002B01D1202303E0BB69B3FA83F3F6
:101C6000DBB203F01F03012202FA03F37A68126861
:101C7000D1697A6812680B43D3617B6818683B6846
:101C800059683B681B681A46FFF7C8FA7B681B68EF
:101C90001846FFF70BFCB8627B681B681846FFF715
:101CA00018FC7862BB6A002B40F0B8807B6A002B7E
:101CB00040F0B4807B6818683B6819683B689B6893
:101CC0001A46FFF7D7FA304B1B6803F07043B3F1A5
:101CD000805F0BD13B685A697B681B68DB689B0897
:101CE00003F007035B0002FA03F31DE07B681B6847
:101CF000DB6803F01003002B0BD13B685A697B684B
:101D00001B68DB689B0803F007035B0002FA03F320
:101D10000AE03B685A697B681B68DB689B0803F034
:101D200004035B0002FA03F33B623B681B69042B6C
:101D30002CD07B6818683B6819693B681A683B6A55
:101D4000FFF705FA7B6818683B6819693B685B7E9A
:101D5000012B02D14FF0004300E000231A46FFF7A9
:101D60002FFA7B6818683B6819693B681B7E012B5A
:101D700002D14FF4006300E000231A46FFF707FA90
:101D80004CE000BF0000FF470010005C7B681B6850
:101D90001B6E03F0F8423B681B689B069A4207D112
:101DA0007B681B681A6E7B681B6822F000421A660B
:101DB0007B681B685B6E03F0F8423B681B689B0600
:101DC0009A4207D17B681B685A6E7B681B6822F0B9
:101DD00000425A667B681B689B6E03F0F8423B68C2
:101DE0001B689B069A4207D17B681B689A6E7B68CA
:101DF0001B6822F000429A667B681B68DB6E03F06A
:101E0000F8423B681B689B069A4207D17B681B68B7
:101E1000DA6E7B681B6822F00042DA667B681B681A
:101E20001846FFF709FB0346002B40F0AA817B68A8
:101E300018683B6819683B68DB681A46FFF746FA82
:101E40003B68DB68874A934240F09A807B681A6857
:101E50007B681B6884498B4247D13B681B68834978
:101E60008B4240D03B681B6881498B4239D03B682C
:101E70001B6880498B4232D03B681B687E498B428D
:101E80002BD03B681B687D498B4224D03B681B6884
:101E90007B498B421DD03B681B687A498B4216D028
:101EA0003B681B6878498B420FD03B681B687749B9
:101EB0008B4208D03B681B6875498B4201D1754B3A
:101EC0005AE0002358E0744B56E0744B54E06E4BDC
:101ED00052E06C4B50E0724B4EE0724B4CE0724B58
:101EE0004AE0724B48E0012346E07B681B6870497A
:101EF0008B4240D13B681B685C498B4239D03B68C0
:101F00001B685B498B4232D03B681B6859498B4246
:101F10002BD03B681B6858498B4224D03B681B6818
:101F200056498B421DD03B681B6855498B4216D0E1
:101F30003B681B6853498B420FD03B681B68524972
:101F40008B4208D03B681B6851498B4201D1514BF1
:101F500012E0002310E0514B0EE04B4B0CE0494BDC
:101F60000AE04F4B08E04F4B06E04F4B04E04F4B6D
:101F700002E0012300E0002319461046FFF7B4F801
:101F80003B681B68002B80F2FC807B681B68364A2C
:101F9000934204D07B681B68454A934201D1454B6C
:101FA00000E0454B1846FFF791F8F8617B681B6825
:101FB0002D4A934204D07B681B683D4A93420ED160
:101FC0002948FFF739FA04463948FFF735FA03463E
:101FD0002343002B0CBF01230023DBB208E037486A
:101FE000FFF72AFA0346002B0CBF01230023DBB2C4
:101FF000002B00F0B3803B681B68314A934265D1E7
:10200000FB6903F40003002B60D17B681B682B4A3B
:10201000934240F0B6807B681B68134A934204D019
:102020007B681B68224A934201D1224A00E0224A7F
:10203000FB6943F4000319461046FFF734F8214BBF
:102040001B689B09204AA2FB03239B0901335B0009
:10205000FB6002E0FB68013BFB60FB68002BF9D1F1
:102060008FE000BF0000FF47002002400200300464
:10207000040060080800900C1000C0102000F0144C
:102080000004002A0008302E0010603200002143B6
:102090000000844B0000B84F0000524700209036EB
:1020A0000002B025000180218000501D4000201951
:1020B00000210240002302400063025800600258E1
:1020C000000084CB58000020632D3E053B681B6850
:1020D000314A93421ED1FB6903F08073002B19D162
:1020E0007B681B682D4A93424BD17B681B682C4A46
:1020F000934204D07B681B682A4A934201D12A4A42
:1021000000E02A4AFB6943F0807319461046FEF747
:10211000CAFF36E03B681B68254A934231D1FB6910
:1021200003F48003002B2CD17B681B681B4A93426D
:1021300027D17B681B681A4A934204D07B681B68CE
:10214000184A934201D1184A00E0184AFB6943F447
:10215000800319461046FEF7A6FF12E07B685B6D10
:1021600043F020027B685A65012387F82F3008E08E
:102170007B685B6D43F020027B685A65012387F81A
:102180002F307B68002283F8502097F82F301846B4
:102190003437BD4690BD00BF000052C700600258F2
:1021A0000020024000210240002302400063025848
:1021B0000000B8CF80B584B000AF78607B681B6842
:1021C0001846FFF739F90346002B6ED17B681B6870
:1021D0009A68384B1340002B0DD07B685B6D43F041
:1021E00010027B685A657B689B6D43F001027B6837
:1021F0009A6501235AE07B681B681846FFF7F4F8DC
:1022000004F01AFCF8607B681B682B4A934204D0E8
:102210007B681B68294A934201D1294B00E0294B76
:102220001846FFF777F8B8607B681B68234A93422B
:1022300002D07B681B6800E01F4B7A6812689342EB
:102240002CD0BB68002B30D128E07B681B68184677
:10225000FFF7F2F80346002B04D17B681B68184691
:10226000FFF7C2F804F0E8FB0246FB68D31A022B22
:1022700014D97B681B681B6803F00103012B0DD088
:102280007B685B6D43F010027B685A657B689B6DD1
:1022900043F001027B689A65012307E07B681B68B5
:1022A0001B6803F00103012BCFD100231846103720
:1022B000BD4680BD3F00008000200240002102405A
:1022C000002302400063025880B584B000AF7860FC
:1022D0007B681B681846FFF7C2F8F8607B681B68CC
:1022E0001846FFF7A9F80346002B47D0FB68002BE0
:1022F00044D17B681B689B6803F00D03012B0CD154
:102300007B681B681846FFF783F87B681B6803220D
:102310001A6004F091FBB86029E07B685B6D43F0C4
:1023200010027B685A657B689B6D43F001027B68F5
:102330009A65012323E004F07FFB0246BB68D31AB1
:10234000022B14D97B681B689B6803F00103002BE8
:102350000DD07B685B6D43F010027B685A657B682B
:102360009B6D43F001027B689A65012307E07B685F
:102370001B689B6803F00103002BDCD10023184687
:102380001037BD4680BD000080B584B000AF7860D6
:102390007B681B687A4A934204D07B681B68794A41
:1023A000934209D1784B9B6803F44033002B14BF50
:1023B00001230023DBB208E0744B9B6803F4403335
:1023C000002B14BF01230023DBB2002B1CD001F033
:1023D0000DFAF8607B685B68B3F5403F10D0B3F549
:1023E000403F73D8B3F5803F02D0B3F5003F6DD1C5
:1023F0007B685B681B0CFA68B2FBF3F3FB6068E078
:10240000FB689B08FB6064E04FF400204FF0000184
:1024100002F052FCF8607B685B68B3F5301F51D066
:10242000B3F5301F54D8B3F5201F47D0B3F5201FA4
:102430004ED8B3F5101F3DD0B3F5101F48D8B3F5F3
:10244000001F33D0B3F5001F42D8B3F5E01F29D0E9
:10245000B3F5E01F3CD8B3F5C01F1AD0B3F5C01FC9
:1024600036D8B3F5A01F14D0B3F5A01F30D8B3F5FC
:10247000801F0ED0B3F5801F2AD8B3F5402F08D0A7
:10248000B3F5402F24D8B3F5802F02D0B3F5002F39
:102490001ED17B685B689B0C5B00FA68B2FBF3F3B0
:1024A000FB6016E0FB681B09FB6012E0FB685B0940
:1024B000FB600EE0FB689B09FB600AE0FB68DB0940
:1024C000FB6006E0FB681B0AFB6002E000BF00E067
:1024D00000BF04F0E1FA034641F20302934215D82B
:1024E000FB682B4A934208D97B681B689A687B6813
:1024F0001B6842F480729A603EE07B681B689A68B1
:102500007B681B6822F480729A6035E0FB685B0888
:10251000FB60FB681F4A934208D87B681B689A6877
:102520007B681B6822F440729A6025E0FB681A4AB7
:1025300093420AD87B681B689B6823F440727B68CF
:102540001B6842F480729A6016E0FB68134A93425B
:102550000AD87B681B689B6823F440727B681B6801
:1025600042F400729A6007E07B681B689A687B6897
:102570001B6842F440729A6000BF1037BD4680BDB0
:102580000020024000210240002302400063025864
:10259000002D3101105E5F0020BCBE0040787D013F
:1025A00080B483B000AF78607B689B6803F0010360
:1025B000012B01D1012300E0002318460C37BD4652
:1025C0005DF8047B7047000080B485B000AFF86010
:1025D000B9607A60FB689A68094B1340BA6802F4E4
:1025E00080317A6802F080420A43134343F000428C
:1025F000FB689A6000BF1437BD465DF8047B7047E6
:10260000C0FFFE3F80B483B000AF78607B689B68FA
:1026100003F00043B3F1004F01D1012300E0002398
:1026200018460C37BD465DF8047B704780B483B014
:1026300000AF78607B689B6803F00403042B01D132
:10264000012300E0002318460C37BD465DF8047BEB
:102650007047000080B586B000AFF860B9607A605E
:1026600000233B61FB6893F85030012B01D102231A
:102670004CE0FB68012283F85020F868FFF724FE45
:102680000346FB75FB7D002B35D1FB685A6D214B52
:10269000134043F00202FB685A65FB681B687A68C6
:1026A000B9681846FFF790FF14E03B6901333B61BE
:1026B0003B69194A93420DD3FB685B6D23F012030B
:1026C00043F01002FB685A65FB68002283F8502033
:1026D00001231BE0FB681B681846FFF793FF0346C6
:1026E000002BE2D1FB685B6D23F0030343F0010292
:1026F000FB685A6505E0FB685B6D43F01002FB6800
:102700005A65FB68002283F85020FB7D1846183775
:10271000BD4680BDFDEEFFFF00F8C32590B59FB01C
:1027200000AF78603960002387F877307B6893F8D2
:102730005030012B01D10223BEE07B68012283F8D7
:1027400050200023FB6500233B667B681B685C4AC6
:10275000934202D15B4BBB6001E00023BB60BB68CE
:10276000002B0BD17B685B6D43F020027B685A65C0
:102770007B68002283F8502001239DE0BB68184647
:10278000FFF754FF38677B681B681846FFF74EFF5A
:102790000346002B7FD13B6F002B7CD17B681B68ED
:1027A000474A934204D07B681B68464A934201D152
:1027B000454B00E0454BFB663B681B68002B39D05E
:1027C000FB6E9B6823F440423B685B681A43FB6ED8
:1027D0009A607B681B683A4A934204D07B681B6806
:1027E000384A93420ED13648FFF7DAFE04463548A0
:1027F000FFF7D6FE03462343002B0CBF0123002323
:10280000DBB208E03248FFF7CBFE0346002B0CBFDB
:1028100001230023DBB2002B47D0FB6E9A682D4BBF
:1028200013403A6811683A6892680A431A43FB6E8B
:102830009A603AE0FB6E9B6823F44042FB6E9A601C
:102840007B681B681E4A934204D07B681B681D4A44
:1028500093420ED11A48FFF7A3FE04461948FFF72A
:102860009FFE03462343002B0CBF01230023DBB252
:1028700008E01748FFF794FE0346002B0CBF012326
:102880000023DBB2002B10D0FB6E9A68114B134073
:10289000FA6E936009E07B685B6D43F020027B6811
:1028A0005A65012387F8773000E000BF7B6800227B
:1028B00083F8502097F8773018467C37BD4690BD96
:1028C0000020024000210240002302400063025821
:1028D00000600258E0F0FFFF80B58CB000AF786078
:1028E0007B68002B02D1012300F048BC7B681B6889
:1028F00003F00103002B00F08880994B1B6903F063
:102900003803FB62964B9B6ABB62FB6A102B07D0B5
:10291000FB6A182B11D1BB6A03F00303022B0CD105
:102920008F4B1B6803F40033002B6DD07B685B6812
:10293000002B69D1012300F021BC7B685B68B3F5F3
:10294000803F06D1864B1B68854A43F48033136071
:102950002EE07B685B68002B0CD1814B1B68804AA2
:1029600023F4803313607E4B1B687D4A23F480235D
:1029700013601DE07B685B68B3F5A02F0CD1784B2A
:102980001B68774A43F480231360754B1B68744AB5
:1029900043F4803313600BE0714B1B68704A23F4DF
:1029A000803313606E4B1B686D4A23F480231360E1
:1029B0007B685B68002B13D004F03EF8786208E077
:1029C00004F03AF802467B6AD31A642B01D9032338
:1029D000D4E3634B1B6803F40033002BF0D014E006
:1029E00004F02AF8786208E004F026F802467B6AD0
:1029F000D31A642B01D90323C0E3594B1B6803F49A
:102A00000033002BF0D100E000BF7B681B6803F0AF
:102A10000203002B00F0CA80514B1B6903F03803FE
:102A20003B624F4B9B6AFB613B6A002B07D03B6AC2
:102A3000182B56D1FB6903F00303002B51D1484BEF
:102A40001B6803F00403002B05D07B68DB68002BB8
:102A500001D1012392E3424B1B6823F019027B68EA
:102A6000DB683F4913430B6003F0E6FF786208E040
:102A700003F0E2FF02467B6AD31A022B01D903233B
:102A80007CE3374B1B6803F00403002BF0D004F009
:102A900003F8034641F20302934217D87B681B698F
:102AA000402B08D12E4B5B6823F47C332C4A43F433
:102AB000003353607AE02A4B5B6823F47C327B68F6
:102AC0001B691B03264913434B606FE0244B5B6873
:102AD00023F0FE427B681B691B06214913434B60B0
:102AE00064E07B68DB68002B47D01D4B1B6823F03C
:102AF00019027B68DB681A4913430B6003F09CFFE3
:102B0000786208E003F098FF02467B6AD31A022B32
:102B100001D9032332E3124B1B6803F00403002B9B
:102B2000F0D003F0B9FF034641F20302934219D8F3
:102B30007B681B69402B08D1094B5B6823F47C330D
:102B4000074A43F40033536030E0054B5B6823F4DD
:102B50007C327B681B691B03014913434B6025E0F2
:102B6000004402589A4B5B6823F0FE427B681B6965
:102B70001B06974913434B6018E0954B1B68944A1A
:102B800023F00103136003F057FF786208E003F0BD
:102B900053FF02467B6AD31A022B01D90323EDE2CD
:102BA0008B4B1B6803F00403002BF0D17B681B6880
:102BB00003F01003002B00F0A980854B1B6903F084
:102BC0003803BB61824B9B6A7B61BB69082B07D0D2
:102BD000BB69182B3AD17B6903F00303012B35D174
:102BE0007B4B1B6803F48073002B05D07B68DB698B
:102BF000802B01D00123C1E203F04EFF034641F2D6
:102C00000302934217D87B681B6A202B08D1704BB4
:102C10005B6823F0F8436E4A43F08043536075E0ED
:102C20006B4B5B6823F0F8427B681B6A9B06684924
:102C300013434B606AE0664BDB6823F07C527B6891
:102C40001B6A1B0662491343CB605FE07B68DB694C
:102C5000002B42D05E4B1B685D4A43F0800313603B
:102C600003F0EAFE786208E003F0E6FE02467B6AC3
:102C7000D31A022B01D9032380E2554B1B6803F4BE
:102C80008073002BF0D003F007FF034641F20302EC
:102C9000934217D87B681B6A202B08D14C4B5B688A
:102CA00023F0F8434A4A43F0804353602EE0484BF8
:102CB0005B6823F0F8427B681B6A9B064449134318
:102CC0004B6023E0424BDB6823F07C527B681B6A3D
:102CD0001B063F491343CB6018E03D4B1B683C4A41
:102CE00023F08003136003F0A7FE786208E003F08E
:102CF000A3FE02467B6AD31A022B01D903233DE2CD
:102D0000334B1B6803F48073002BF0D17B681B6886
:102D100003F00803002B36D07B685B69002B19D0C9
:102D20002B4B5B6F2A4A43F00103536703F084FE89
:102D3000786208E003F080FE02467B6AD31A022B19
:102D400001D903231AE2224B5B6F03F00203002B2D
:102D5000F0D018E01E4B5B6F1D4A23F00103536750
:102D600003F06AFE786208E003F066FE02467B6AC2
:102D7000D31A022B01D9032300E2154B5B6F03F03A
:102D80000203002BF0D17B681B6803F02003002BAB
:102D900039D07B689B69002B1CD00D4B1B680C4AFB
:102DA00043F48053136003F047FE786208E003F0B9
:102DB00043FE02467B6AD31A022B01D90323DDE1CD
:102DC000034B1B6803F40053002BF0D01BE000BF43
:102DD000004402589B4B1B689A4A23F480531360AB
:102DE00003F02AFE786208E003F026FE02467B6AC2
:102DF000D31A022B01D90323C0E1924B1B6803F4C1
:102E00000053002BF0D17B681B6803F00403002BF8
:102E100000F081808C4B1B688B4A43F480731360F5
:102E200003F00AFE786208E003F006FE02467B6AC1
:102E3000D31A642B01D90323A0E1834B1B6803F44D
:102E40008073002BF0D07B689B68012B06D17D4BF3
:102E50001B6F7C4A43F0010313672DE07B689B687E
:102E6000002B0CD1774B1B6F764A23F001031367BD
:102E7000744B1B6F734A23F0040313671CE07B68D9
:102E80009B68052B0CD16F4B1B6F6E4A43F00403FC
:102E900013676C4B1B6F6B4A43F0010313670BE026
:102EA000684B1B6F674A23F001031367654B1B6F69
:102EB000644A23F0040313677B689B68002B15D0DA
:102EC00003F0BAFD78620AE003F0B6FD02467B6AC1
:102ED000D31A41F28832934201D903234EE1594B70
:102EE0001B6F03F00203002BEED014E003F0A4FDEF
:102EF00078620AE003F0A0FD02467B6AD31A41F231
:102F00008832934201D9032338E14E4B1B6F03F003
:102F10000203002BEED17B685B6A002B00F02D8151
:102F2000484B1B6903F03803182B00F0BD807B6809
:102F30005B6A022B40F09E80424B1B68414A23F0A3
:102F40008073136003F078FD786208E003F074FD8D
:102F500002467B6AD31A022B01D903230EE1394BB7
:102F60001B6803F00073002BF0D1364B9A6A374B85
:102F700013407A68916A7A68D26A12010A43314929
:102F800013438B627B681B6B013BC3F308027B68B6
:102F90005B6B013B5B029BB21A437B689B6B013B03
:102FA0001B0403F4FE031A437B68DB6B013B1B0627
:102FB00003F0FE43234913430B63224BDB6A214A90
:102FC00023F00103D3621F4B5A6B214B13407A68E5
:102FD000926CD2001B4913434B631A4BDB6A23F0FC
:102FE0000C027B681B6C17491343CB62154BDB6AE1
:102FF00023F002027B685B6C12491343CB62114BD6
:10300000DB6A104A43F48033D3620E4BDB6A0D4A0D
:1030100043F40033D3620B4BDB6A0A4A43F4802348
:10302000D362084BDB6A074A43F00103D362054BC6
:103030001B68044A43F08073136003F0FDFC786260
:1030400011E000BF00440258004802580CFCFFFF8A
:103050000700FFFF03F0F0FC02467B6AD31A022B45
:1030600001D903238AE0474B1B6803F00073002B50
:10307000F0D082E0434B1B68424A23F08073136018
:1030800003F0DAFC786208E003F0D6FC02467B6AC3
:10309000D31A022B01D9032370E03A4B1B6803F0CB
:1030A0000073002BF0D168E0364B9B6A3B61354BD7
:1030B0001B6BFB607B685B6A012B31D03B6903F0C3
:1030C00003027B689B6A9A422AD13B691B0903F081
:1030D0003F027B68DB6A9A4222D1FB68C3F3080295
:1030E0007B681B6B013B9A421AD1FB685B0A03F0B9
:1030F0007F027B685B6B013B9A4211D1FB681B0C22
:1031000003F07F027B689B6B013B9A4208D1FB680E
:103110001B0E03F07F027B68DB6B013B9A4201D000
:1031200001232BE0174B5B6BDB08C3F30C033B6104
:103130007B689B6C3A699A421FD0124BDB6A114A3A
:1031400023F00103D36203F077FC786200BF03F041
:1031500073FC02467B6A9342F9D00A4B5A6B0A4BC6
:1031600013407A68926CD200064913434B63054BB7
:10317000DB6A044A43F00103D36200231846303768
:10318000BD4680BD004402580700FFFF80B586B0F1
:1031900000AF786039607B68002B01D101239CE18E
:1031A0008A4B1B6803F00F033A689A4210D9874B89
:1031B0001B6823F00F0285493B6813430B60834B68
:1031C0001B6803F00F033A689A4201D0012384E19F
:1031D0007B681B6803F00403002B10D07B681A691E
:1031E0007B4B9B6903F070039A4208D9784B9B692B
:1031F00023F070027B681B69754913438B617B6800
:103200001B6803F00803002B10D07B685A69704BD1
:10321000DB6903F070039A4208D96D4BDB6923F038
:1032200070027B685B696A491343CB617B681B68EA
:1032300003F01003002B10D07B689A69644BDB69A4
:1032400003F4E0639A4208D9614BDB6923F4E0623E
:103250007B689B695E491343CB617B681B6803F005
:103260002003002B10D07B68DA69594B1B6A03F0EE
:1032700070039A4208D9564B1B6A23F070027B6890
:10328000DB69534913430B627B681B6803F002033D
:10329000002B10D07B68DA684D4B9B6903F00F035D
:1032A0009A4208D94A4B9B6923F00F027B68DB687E
:1032B000474913438B617B681B6803F00103002BB4
:1032C00055D0434B9B6923F470627B689B684049EF
:1032D00013438B617B685B68022B07D13C4B1B68F7
:1032E00003F40033002B21D10123F6E07B685B68F7
:1032F000032B07D1364B1B6803F00073002B15D14D
:103300000123EAE07B685B68012B07D1304B1B6827
:1033100003F48073002B09D10123DEE02C4B1B68E2
:1033200003F00403002B01D10123D6E0284B1B69D5
:1033300023F007027B685B68254913430B6103F0A8
:103340007BFB78610AE003F077FB02467B69D31AC6
:1033500041F28832934201D90323BEE01C4B1B6922
:1033600003F038027B685B68DB009A42EBD17B6834
:103370001B6803F00203002B10D07B68DA68144B43
:103380009B6903F00F039A4208D2114B9B6923F00B
:103390000F027B68DB680E4913438B610B4B1B6884
:1033A00003F00F033A689A4214D2084B1B6823F0CB
:1033B0000F0206493B6813430B60044B1B6803F084
:1033C0000F033A689A4205D0012386E0002000529C
:1033D000004402587B681B6803F00403002B10D0E4
:1033E0007B681A693F4B9B6903F070039A4208D2CD
:1033F0003C4B9B6923F070027B681B69394913437E
:103400008B617B681B6803F00803002B10D07B687E
:103410005A69344BDB6903F070039A4208D2314B8E
:10342000DB6923F070027B685B692E491343CB6133
:103430007B681B6803F01003002B10D07B689A692F
:10344000284BDB6903F4E0639A4208D2254BDB6921
:1034500023F4E0627B689B6922491343CB617B685C
:103460001B6803F02003002B10D07B68DA691D4B2A
:103470001B6A03F070039A4208D21A4B1B6A23F0AE
:1034800070027B68DB69174913430B6200F034F864
:103490000246144B9B691B0A03F00F031249CB5CD5
:1034A00003F01F0322FA03F33B610E4B9B6903F009
:1034B0000F030D4AD35C03F01F033A6922FA03F3AA
:1034C0000A4A13600A4A3B6913600A4B1B68184694
:1034D00003F068FA0346FB73FB7B18461837BD46BA
:1034E00080BD00BF00440258708C00085C000020C2
:1034F000580000205000002080B489B000AFB34BCA
:103500001B6903F03803182B00F2558101A252F811
:1035100023F000BF79350008B7370008B737000837
:10352000B7370008B7370008B7370008B7370008C3
:10353000B73700089F350008B7370008B7370008CD
:10354000B7370008B7370008B7370008B7370008A3
:10355000B7370008A5350008B7370008B7370008A7
:10356000B7370008B7370008B7370008B737000883
:10357000B7370008AB350008944B1B6803F02003F5
:10358000002B09D0914B1B68DB0803F00303904A22
:1035900022FA03F3BB6111E18D4BBB610EE18D4B50
:1035A000BB610BE18C4BBB6108E1884B9B6A03F06C
:1035B00003037B61854B9B6A1B0903F03F033B615F
:1035C000824BDB6A03F00103FB60804B5B6BDB0823
:1035D000C3F30C03FA6802FB03F307EE903AF8EE2C
:1035E000677AC7ED027A3B69002B00F0E1807B69C6
:1035F000022B00F083807B69022B00F2A1807B69A3
:10360000002B03D07B69012B56D099E06F4B1B68D0
:1036100003F02003002B2DD06C4B1B68DB0803F05C
:1036200003036B4A22FA03F37B607B6807EE903A50
:10363000F8EE676A3B6907EE903AF8EE677A86EE35
:10364000A77A624B1B6BC3F3080307EE903AF8EEC0
:10365000676A97ED026ADFED615AC6EE257A76EE6B
:10366000A77AF7EE006A77EEA67A67EE277AC7EDBB
:10367000077A87E03B6907EE903AF8EE677ADFED6C
:10368000586A86EEA77A514B1B6BC3F3080307EE0B
:10369000903AF8EE676A97ED026ADFED505AC6EE8F
:1036A000257A76EEA77AF7EE006A77EEA67A67EECD
:1036B000277AC7ED077A65E03B6907EE903AF8EEA6
:1036C000677ADFED486A86EEA77A404B1B6BC3F33F
:1036D000080307EE903AF8EE676A97ED026ADFEDAD
:1036E0003F5AC6EE257A76EEA77AF7EE006A77EEB5
:1036F000A67A67EE277AC7ED077A43E03B6907EEC3
:10370000903AF8EE677ADFED386A86EEA77A2F4BAB
:103710001B6BC3F3080307EE903AF8EE676A97ED68
:10372000026ADFED2E5AC6EE257A76EEA77AF7EE1C
:10373000006A77EEA67A67EE277AC7ED077A21E06E
:103740003B6907EE903AF8EE677ADFED266A86EE7F
:10375000A77A1E4B1B6BC3F3080307EE903AF8EEF3
:10376000676A97ED026ADFED1D5AC6EE257A76EE9E
:10377000A77AF7EE006A77EEA67A67EE277AC7EDAA
:10378000077A00BF114B1B6B5B0A03F07F03013309
:103790003B603B6807EE903AB8EE677AD7ED076A70
:1037A000C6EE877AFCEEE77A17EE903ABB6105E049
:1037B0000023BB6102E0074BBB6100BFBB69184639
:1037C0002437BD465DF8047B704700BF00440258B3
:1037D0000090D00300093D0040787D0100000046C4
:1037E0000024744C0024744A20BCBE4B80B582B0C7
:1037F00000AFFFF781FE0246104B9B691B0A03F0E6
:103800000F030F49CB5C03F01F0322FA03F37B6025
:103810000A4B9B6903F00F03094AD35C03F01F03B3
:103820007A6822FA03F3074A1360074A7B68136039
:10383000044B1B6818460837BD4680BD004402583B
:10384000708C00085C0000205800002080B500AF9C
:10385000FFF7CCFF0246064BDB691B0903F00703A9
:103860000449CB5C03F01F0322FA03F3184680BD22
:1038700000440258708C000880B500AFFFF7B6FF17
:103880000246064BDB691B0A03F007030449CB5CC5
:1038900003F01F0322FA03F3184680BD00440258C8
:1038A000708C00082DE9B04FCAB000AFC7F8140102
:1038B000002387F82731002387F82631D7F8143101
:1038C000D3E9002302F00064002554EA050349D03F
:1038D000D7F814319B6EB3F5401F2FD0B3F5401FBE
:1038E00028D8B3F5001F1AD0B3F5001F22D8002B3B
:1038F00003D0B3F5801F07D01CE0B84BDB6AB74A92
:1039000043F40033D3621AE0D7F8143108330221AC
:10391000184602F061FB034687F827310FE0D7F81D
:10392000143128330221184602F008FC034687F8B8
:10393000273104E0012387F8273100E000BF97F822
:103940002731002B0AD1A54B1B6D23F44011D7F86A
:1039500014319B6EA14A0B43136503E097F827319E
:1039600087F82631D7F81431D3E9002302F48078A0
:103970004FF0000958EA090347D0D7F814319B6D7E
:10398000042B2AD801A252F823F000BFA139000865
:10399000AF390008C5390008E3390008E3390008E9
:1039A0008E4BDB6A8D4A43F40033D3621AE0D7F8BA
:1039B000143108330021184602F00EFB034687F845
:1039C00027310FE0D7F8143128330021184602F0D0
:1039D000B5FB034687F8273104E0012387F8273138
:1039E00000E000BF97F82731002B0AD17B4B1B6DFD
:1039F00023F00701D7F814319B6D784A0B43136508
:103A000003E097F8273187F82631D7F81431D3E946
:103A1000002302F4007A4FF0000B5AEA0B034CD05B
:103A2000D7F81431DB6DB3F5807F30D0B3F5807FEC
:103A300029D8C02B2DD0C02B25D8802B18D0802B77
:103A400021D8002B02D0402B07D01CE0634BDB6A4F
:103A5000624A43F40033D3621CE0D7F814310833D0
:103A60000021184602F0B8FA034687F8273111E022
:103A7000D7F8143128330021184602F05FFB0346C3
:103A800087F8273106E0012387F8273102E000BFDD
:103A900000E000BF97F82731002B0AD14F4B1B6D78
:103AA00023F4E071D7F81431DB6D4C4A0B431365F6
:103AB00003E097F8273187F82631D7F81431D3E996
:103AC000002302F48063C7F808310023C7F80C31E3
:103AD000D7E942120B46134353D0D7F81431D3F829
:103AE000A830B3F5000F35D0B3F5000F2ED8B3F5DD
:103AF000C00F31D0B3F5C00F28D8B3F5800F1AD05E
:103B0000B3F5800F22D8002B03D0B3F5001F07D0E8
:103B10001CE0324BDB6A314A43F40033D3621CE0D1
:103B2000D7F8143108330021184602F055FA03463D
:103B300087F8273111E0D7F81431283300211846CF
:103B400002F0FCFA034687F8273106E0012387F8E4
:103B5000273102E000BF00E000BF97F82731002BBB
:103B60000BD11E4B9B6D23F46001D7F81431D3F8B1
:103B7000A8301A4A0B43936503E097F8273187F87A
:103B80002631D7F81431D3E9002302F40063C7F8D3
:103B900000310023C7F80431D7E940120B46134324
:103BA00056D0D7F81431D3F8AC30B3F1806F38D099
:103BB000B3F1806F31D8B3F1407F34D0B3F1407F9F
:103BC0002BD8B3F1007F1DD0B3F1007F25D8002B97
:103BD00006D0B3F1807F0AD01FE000BF0044025836
:103BE000A24BDB6AA14A43F40033D3621CE0D7F84E
:103BF000143108330021184602F0EEF9034687F825
:103C0000273111E0D7F8143128330021184602F08B
:103C100095FA034687F8273106E0012387F8273114
:103C200002E000BF00E000BF97F82731002B0BD166
:103C30008E4B9B6D23F0E061D7F81431D3F8AC3094
:103C40008A4A0B43936503E097F8273187F82631BA
:103C5000D7F81431D3E9002302F00073C7F8F83025
:103C60000023C7F8FC30D7E93E120B4613433AD085
:103C7000D7F81431DB6C302B1FD0302B19D8202B08
:103C80000CD0202B15D8002B19D0102B11D1774B2D
:103C9000DB6A764A43F40033D36211E0D7F814317B
:103CA00008330221184602F097F9034687F82731B6
:103CB00006E0012387F8273102E000BF00E000BFE3
:103CC00097F82731002B0AD1684BDB6C23F03001C9
:103CD000D7F81431DB6C654A0B43D36403E097F8E3
:103CE000273187F82631D7F81431D3E9002302F4BD
:103CF0008053C7F8F0300023C7F8F430D7E93C12FE
:103D00000B46134351D0D7F814311B6EB3F5804FD7
:103D100035D0B3F5804F2ED8B3F5405F31D0B3F531
:103D2000405F28D8B3F5005F1AD0B3F5005F22D802
:103D3000002B03D0B3F5805F07D01CE04B4BDB6A50
:103D40004A4A43F40033D3621CE0D7F814310833F5
:103D50000021184602F040F9034687F8273111E0A8
:103D6000D7F8143128330021184602F0E7F903464A
:103D700087F8273106E0012387F8273102E000BFEA
:103D800000E000BF97F82731002B0AD1374B1B6D9D
:103D900023F4E041D7F814311B6E344A0B4313650A
:103DA00003E097F8273187F82631D7F81431D3E9A3
:103DB000002302F40053C7F8E8300023C7F8EC30C2
:103DC000D7E93A120B46134356D0D7F814315B6E3D
:103DD000B3F5A02F33D0B3F5A02F2CD8B3F5802F97
:103DE0002FD0B3F5802F26D8B3F5403F2BD0B3F5B5
:103DF000403F20D8B3F5003F12D0B3F5003F1AD8AA
:103E0000002B22D0B3F5803F15D1D7F814310833F9
:103E10000121184602F0E0F8034687F8273115E043
:103E2000D7F8143128330121184602F087F90346E8
:103E300087F827310AE0012387F8273106E000BF21
:103E400004E000BF02E000BF00E000BF97F82731A8
:103E5000002B0DD1054B1B6D23F4E021D7F8143155
:103E60005B6E024A0B43136506E000BF0044025834
:103E700097F8273187F82631D7F81431D3E9002392
:103E800002F48043C7F8E0300023C7F8E430D7E9F4
:103E900038120B46134355D0D7F81431D3F8B0304D
:103EA000B3F1A04F33D0B3F1A04F2CD8B3F1804F72
:103EB0002FD0B3F1804F26D8B3F1405F2BD0B3F1B0
:103EC000405F20D8B3F1005F12D0B3F1005F1AD881
:103ED000002B22D0B3F1805F15D1D7F8143108330D
:103EE0000121184602F078F8034687F8273115E0DB
:103EF000D7F8143128330121184602F01FF9034680
:103F000087F827310AE0012387F8273106E000BF50
:103F100004E000BF02E000BF00E000BF97F82731D7
:103F2000002B0BD1A34B9B6D23F0E041D7F814314C
:103F3000D3F8B0309F4A0B43936503E097F82731DD
:103F400087F82631D7F81431D3E9002302F400436F
:103F5000C7F8D8300023C7F8DC30D7E936120B4653
:103F6000134337D0D7F814311B6FB3F1005F0ED075
:103F7000B3F1005F16D8002B18D0B3F1805F11D1D8
:103F80008C4BDB6A8B4A43F40033D3620FE0D7F8E3
:103F9000143108330121184602F01EF8034687F851
:103FA000273104E0012387F8273100E000BF97F8AC
:103FB0002731002B0AD17F4B1B6D23F04051D7F8DE
:103FC00014311B6F7B4A0B43136503E097F82731CD
:103FD00087F82631D7F81431D3E9002302F0807333
:103FE000C7F8D0300023C7F8D430D7E934120B46D5
:103FF000134339D0D7F814319B6C032B1CD801A282
:1040000052F823F041400008154000082340000802
:1040100041400008674BDB6A664A43F40033D362D1
:104020000FE0D7F8143108330221184601F0D4FF0D
:10403000034687F8273104E0012387F8273100E0A1
:1040400000BF97F82731002B0AD15A4BDB6C23F0C5
:104050000301D7F814319B6C564A0B43D36403E039
:1040600097F8273187F82631D7F81431D3E90023A0
:1040700002F48003C7F8C8300023C7F8CC30D7E972
:1040800032120B46134300F09F804B4B1B684A4A89
:1040900043F48073136002F0CFFCC7F820010BE0FB
:1040A00002F0CAFC0246D7F82031D31A642B03D998
:1040B000032387F8273105E03F4B1B6803F4807327
:1040C000002BEDD097F82731002B79D1394B1A6F9F
:1040D000D7F81431D3F8B430534003F44073002BB5
:1040E00015D0344B1B6F23F44073C7F81C31314B90
:1040F0001B6F304A43F4803313672E4B1B6F2D4ADE
:1041000023F4803313672B4AD7F81C311367D7F891
:104110001431D3F8B430B3F5807F18D102F08CFCA1
:10412000C7F820010DE002F087FC0246D7F82031E5
:10413000D21A41F288339A4203D9032387F82731F0
:1041400005E01C4B1B6F03F00203002BEBD097F82C
:104150002731002B29D1D7F81431D3F8B43003F428
:104160004073B3F5407F0ED1124B1B6923F47C5191
:10417000D7F81431D3F8B4301A09104B13400D4A54
:104180000B43136105E00B4B1B690A4A23F47C5374
:104190001361084B196FD7F81431D3F8B430C3F357
:1041A0000B03044A0B4313670EE097F8273187F897
:1041B000263109E00044025800480258CFFFFF00B2
:1041C00097F8273187F82631D7F81431D3E900233F
:1041D00002F00103C7F8C0300023C7F8C430D7E9A4
:1041E00030120B46134300F08980D7F81431DB6F8F
:1041F000282B6BD801A252F823F000BFD54200084B
:10420000CD420008CD420008CD420008CD42000852
:10421000CD420008CD420008CD420008A14200086E
:10422000CD420008CD420008CD420008CD42000832
:10423000CD420008CD420008CD420008B742000838
:10424000CD420008CD420008CD420008CD42000812
:10425000CD420008CD420008CD420008D5420008FA
:10426000CD420008CD420008CD420008CD420008F2
:10427000CD420008CD420008CD420008D5420008DA
:10428000CD420008CD420008CD420008CD420008D2
:10429000CD420008CD420008CD420008D5420008BA
:1042A000D7F8143108330121184601F095FE034672
:1042B00087F827310FE0D7F8143128330121184649
:1042C00001F03CFF034687F8273104E0012387F81B
:1042D000273100E000BF97F82731002B0AD1BF4BF0
:1042E0005B6D23F03801D7F81431DB6FBB4A0B4309
:1042F000536503E097F8273187F82631D7F8143152
:10430000D3E9002302F00203C7F8B8300023C7F84E
:10431000BC30D7E92E120B46134341D0D7F81431E5
:104320009B6F052B24D801A252F823F07943000893
:10433000454300085B4300087943000879430008BF
:1043400079430008D7F8143108330121184601F0E9
:1043500043FE034687F827310FE0D7F8143128339E
:104360000121184601F0EAFE034687F8273104E0F0
:10437000012387F8273100E000BF97F82731002B91
:104380000AD1964B5B6D23F00701D7F814319B6F70
:10439000924A0B43536503E097F8273187F826319B
:1043A000D7F81431D3E9002302F00403C7F8B03082
:1043B0000023C7F8B430D7E92C120B46134344D07E
:1043C000D7F81431D3F89430052B25D801A252F830
:1043D00023F000BF21440008ED4300080344000817
:1043E000214400082144000821440008D7F8143172
:1043F00008330121184601F0EFFD034687F8273105
:104400000FE0D7F8143128330121184601F096FE49
:10441000034687F8273104E0012387F8273100E0BD
:1044200000BF97F82731002B0BD16C4B9B6D23F00D
:104430000701D7F81431D3F89430684A0B439365D9
:1044400003E097F8273187F82631D7F81431D3E9FC
:10445000002302F02003C7F8A8300023C7F8AC30CF
:10446000D7E92A120B46134355D0D7F81431D3F8A5
:104470009030B3F1A04F33D0B3F1A04F2CD8B3F1AB
:10448000804F2FD0B3F1804F26D8B3F1405F2BD0AF
:10449000B3F1405F20D8B3F1005F12D0B3F1005FF9
:1044A0001AD8002B22D0B3F1805F15D1D7F8143180
:1044B00008330021184601F08FFD034687F82731A5
:1044C00015E0D7F8143128330221184601F036FEE2
:1044D000034687F827310AE0012387F8273106E0F1
:1044E00000BF04E000BF02E000BF00E000BF97F89B
:1044F0002731002B0BD1394B5B6D23F0E041D7F80E
:104500001431D3F89030354A0B43536503E097F8E4
:10451000273187F82631D7F81431D3E9002302F088
:104520004003C7F8A0300023C7F8A430D7E9281209
:104530000B46134358D0D7F81431D3F89C30B3F559
:10454000A05F33D0B3F5A05F2CD8B3F5805F2FD038
:10455000B3F5805F26D8B3F5406F2BD0B3F5406F2D
:1045600020D8B3F5006F12D0B3F5006F1AD8002B26
:1045700022D0B3F5806F15D1D7F81431083300215C
:10458000184601F029FD034687F8273115E0D7F8D2
:10459000143128330221184601F0D0FD034687F874
:1045A00027310AE0012387F8273106E000BF04E045
:1045B00000BF02E000BF00E000BF97F82731002BEA
:1045C0000ED1064B9B6D23F4E051D7F81431D3F88C
:1045D0009C30024A0B43936506E000BF004402583A
:1045E00097F8273187F82631D7F81431D3E900231B
:1045F00002F08003C7F898300023C7F89C30D7E951
:1046000026120B46134355D0D7F81431D3F8A030F7
:10461000B3F5204F33D0B3F5204F2CD8B3F5004F6E
:104620002FD0B3F5004F26D8B3F5C04F2BD0B3F53C
:10463000C04F20D8B3F5804F12D0B3F5804F1AD8B1
:10464000002B22D0B3F5005F15D1D7F81431083311
:104650000021184601F0C0FC034687F8273115E019
:10466000D7F8143128330221184601F067FD0346BC
:1046700087F827310AE0012387F8273106E000BFD9
:1046800004E000BF02E000BF00E000BF97F8273160
:10469000002B0BD1A14B9B6D23F46041D7F8143153
:1046A000D3F8A0309D4A0B43936503E097F8273178
:1046B00087F82631D7F81431D3E9002302F0080334
:1046C000C7F890300023C7F89430D7E924120B467E
:1046D00013431ED0D7F81431D3F88430B3F5805F7C
:1046E0000CD1D7F8143128330221184601F026FDE9
:1046F0000346002B02D0012387F82631874B5B6DE0
:1047000023F44051D7F81431D3F88430834A0B4353
:104710005365D7F81431D3E9002302F01003C7F82A
:1047200088300023C7F88C30D7E922120B46134398
:104730001ED0D7F81431D3F89830B3F5807F0CD160
:10474000D7F8143128330221184601F0F7FC03464C
:10475000002B02D0012387F82631704B9B6D23F488
:104760004071D7F81431D3F898306C4A0B439365F5
:10477000D7F81431D3E9002302F40023C7F88030BE
:104780000023C7F88430D7E920120B4613433ED0EC
:10479000D7F81431D3F8A430B3F5003F22D0B3F5E5
:1047A000003F1BD8002B03D0B3F5803F0BD015E0A2
:1047B000D7F8143108330021184601F00DFC0346E8
:1047C00087F827310FE0D7F8143128330221184633
:1047D00001F0B4FC034687F8273104E0012387F891
:1047E000273100E000BF97F82731002B0BD14B4B4E
:1047F0009B6D23F44031D7F81431D3F8A430474AE5
:104800000B43936503E097F8273187F82631D7F8F3
:104810001431D3E9002302F48023BB670023FB6734
:10482000D7E91E120B4613433BD0D7F81431D3F807
:104830008830B3F5401F1FD0B3F5401F18D8B3F52B
:10484000801F03D0B3F5001F07D011E0334BDB6AA4
:10485000324A43F40033D3620FE0D7F814312833DF
:104860000121184601F06AFC034687F8273104E06D
:10487000012387F8273100E000BF97F82731002B8C
:104880000BD1264B5B6D23F44011D7F81431D3F8CC
:104890008830224A0B43536503E097F8273187F8A5
:1048A0002631D7F81431D3E9002302F480333B6773
:1048B00000237B67D7E91C120B46134334D0D7F88B
:1048C00014311B6D002B03D0B3F5803F07D011E0EE
:1048D000124BDB6A114A43F40033D3620EE0D7F87F
:1048E000143108330221184601F076FB034687F89D
:1048F000273103E0012387F8273100BF97F82731DC
:10490000002B0DD1054BDB6C23F48031D7F814312B
:104910001B6D024A0B43D36406E000BF00440258FB
:1049200097F8273187F82631D7F81431D3E90023D7
:1049300002F00053BB660023FB66D7E91A120B4650
:1049400013430CD0D7F8143128330221184601F054
:10495000F5FB0346002B02D0012387F82631D7F858
:104960001431D3E9002302F400333B6600237B6655
:10497000D7E918120B46134338D0D7F81431D3F8BF
:104980008030B3F5407F18D0B3F5407F11D8B3F530
:10499000007F14D0B3F5007F0BD8002B11D0B3F5F6
:1049A000807F06D1C34BDB6AC24A43F40033D36233
:1049B00008E0012387F8273104E000BF02E000BFD0
:1049C00000E000BF97F82731002B0BD1B94B5B6D8E
:1049D00023F44071D7F81431D3F88030B54A0B4333
:1049E000536503E097F8273187F82631D7F814315B
:1049F000D3E9002302F48013BB650023FB65D7E9EC
:104A000016120B46134309D0AA4B1B6D23F000412D
:104A1000D7F814315B6FA74A0B431365D7F81431ED
:104A2000D3E9002302F080533B6500237B65D7E97F
:104A300014120B4613430AD09E4B1B6923F480418A
:104A4000D7F81431D3F8B8309A4A0B431361D7F82A
:104A50001431D3E9002302F40013BB640023FB6488
:104A6000D7E912120B46134309D0924B1B6D23F06A
:104A70008071D7F81431DB6E8E4A0B431365D7F87B
:104A80001431D3E9002302F080433B6400237B64AC
:104A9000D7E910120B4613430ED0864B1B69854A8B
:104AA00023F400431361834B1969D7F81431D3F809
:104AB000BC30804A0B431361D7F81431D3E900238B
:104AC00002F00043BB630023FB63D7E90E120B46E1
:104AD000134309D0774BDB6C23F04051D7F81431E6
:104AE0005B6D744A0B43D364D7F81431D3E90023C8
:104AF00002F400033B6300237B63D7E90C120B46EF
:104B000013430AD06B4B5B6D23F44001D7F814318B
:104B1000D3F88C30674A0B435365D7F81431D3E987
:104B200000230021B96203F00103FB62D7E90A12F6
:104B30000B46134311D0D7F814310833002118461F
:104B400001F04AFA034687F8273197F82731002BFE
:104B500003D097F8273187F82631D7F81431D3E9F5
:104B600000230021396203F002037B62D7E90812B7
:104B70000B46134311D0D7F81431083301211846DE
:104B800001F02AFA034687F8273197F82731002BDE
:104B900003D097F8273187F82631D7F81431D3E9B5
:104BA00000230021B96103F00403FB61D7E9061279
:104BB0000B46134311D0D7F814310833022118469D
:104BC00001F00AFA034687F8273197F82731002BBE
:104BD00003D097F8273187F82631D7F81431D3E975
:104BE00000230021396103F008037B61D7E9041237
:104BF0000B46134311D0D7F814312833002118463F
:104C000001F09CFA034687F8273197F82731002BEB
:104C100003D097F8273187F82631D7F81431D3E934
:104C200000230021B96003F01003FB60D7E90212F2
:104C30000B46134311D0D7F81431283301211846FD
:104C400001F07CFA034687F8273197F82731002BCB
:104C500003D097F8273187F82631D7F81431D3E9F4
:104C600000230021396003F020037B60D7E90012A4
:104C70000B46134311D0D7F81431283302211846BC
:104C800001F05CFA034687F8273197F82731002BAB
:104C900003D097F8273187F8263197F82631002B73
:104CA00001D1002300E00123184607F59477BD46A3
:104CB000BDE8B08F0044025880B590B000AFC7E99E
:104CC0000001D7E90023A2F580710B4340F09480E6
:104CD0009E4B1B6D03F007033B633B6B042B00F201
:104CE000878001A252F823F0FD4C0008254D0008F2
:104CF0004D4D0008E94D0008754D0008934B1B68A9
:104D000003F00073B3F1007F08D107F124031846C4
:104D100001F010F8BB6AFB6300F045BD0023FB63A4
:104D200000F041BD894B1B6803F00063B3F1006FD5
:104D300008D107F11803184600F054FDBB69FB6366
:104D400000F031BD0023FB6300F02DBD7F4B1B68DD
:104D500003F00053B3F1005F08D107F10C031846CC
:104D600000F094FEFB68FB6300F01DBD0023FB63B5
:104D700000F019BD754BDB6C03F040537B63734B44
:104D80001B6803F00403042B0CD17B6B002B09D1AF
:104D90006E4B1B68DB0803F003036D4A22FA03F332
:104DA000FB631FE0694B1B6803F48073B3F5807FDE
:104DB00006D17B6BB3F1805F02D1664BFB6311E0E0
:104DC000624B1B6803F40033B3F5003F06D17B6BE5
:104DD000B3F1005F02D1604BFB6303E00023FB6390
:104DE00000F0E1BC00F0DFBC5C4BFB6300F0DBBC1F
:104DF0000023FB6300F0D7BCD7E90023A2F50071C4
:104E00000B4340F0AD80514B1B6D03F4E0733B63EB
:104E10003B6BB3F5807F56D03B6BB3F5807F00F2E0
:104E200090803B6BC02B00F088803B6BC02B00F266
:104E300088803B6B802B32D03B6B802B00F28180D3
:104E40003B6B002B03D03B6B402B14D079E03F4BE6
:104E50001B6803F00073B3F1007F08D107F124034E
:104E6000184600F067FFBB6AFB6300F09CBC0023A0
:104E7000FB6300F098BC354B1B6803F00063B3F193
:104E8000006F08D107F11803184600F0ABFCBB69AE
:104E9000FB6300F088BC0023FB6300F084BC2B4B59
:104EA0001B6803F00053B3F1005F08D107F10C0356
:104EB000184600F0EBFDFB68FB6300F074BC0023B8
:104EC000FB6300F070BC214BDB6C03F040537B6351
:104ED0001E4B1B6803F00403042B0CD17B6B002BCF
:104EE00009D11A4B1B68DB0803F00303184A22FAA6
:104EF00003F3FB631FE0154B1B6803F48073B3F5EA
:104F0000807F06D17B6BB3F1805F02D1114BFB63D5
:104F100011E00E4B1B6803F40033B3F5003F06D1DC
:104F20007B6BB3F1005F02D10B4BFB6303E000230B
:104F3000FB6300F038BC00F036BC084BFB6300F0AC
:104F400032BC0023FB6300F02EBC00BF00440258BB
:104F50000090D00300093D0040787D010080BB0037
:104F6000D7E90023A2F580610B4340F09C809E4B63
:104F70009B6D03F460033B633B6BB3F5000F54D0B0
:104F80003B6BB3F5000F00F28B803B6BB3F5C00FAA
:104F900000F083803B6BB3F5C00F00F281803B6B68
:104FA000B3F5800F2FD03B6BB3F5800F78D83B6BF8
:104FB000002B04D03B6BB3F5001F12D070E08A4B7E
:104FC0001B6803F00073B3F1007F07D107F12403DE
:104FD000184600F0AFFEBB6AFB63E4E30023FB630B
:104FE000E1E3814B1B6803F00063B3F1006F07D16D
:104FF00007F11803184600F0F5FBBB69FB63D2E329
:105000000023FB63CFE3784B1B6803F00053B3F13D
:10501000005F07D107F10C03184600F037FDFB686D
:10502000FB63C0E30023FB63BDE36F4BDB6C03F06A
:1050300040537B636C4B1B6803F00403042B0CD1BF
:105040007B6B002B09D1684B1B68DB0803F0030363
:10505000664A22FA03F3FB631EE0634B1B6803F40A
:105060008073B3F5807F06D17B6BB3F1805F02D193
:105070005F4BFB6310E05C4B1B6803F40033B3F53C
:10508000003F06D17B6BB3F1005F02D1594BFB634C
:1050900002E00023FB6386E385E3574BFB6382E377
:1050A0000023FB637FE3D7E90023A2F500610B43F4
:1050B00040F0A7804C4B9B6D03F0E0633B633B6B80
:1050C000B3F1806F55D03B6BB3F1806F00F29680E7
:1050D0003B6BB3F1407F00F084803B6BB3F1407FCA
:1050E00000F28C803B6BB3F1007F30D03B6BB3F1AF
:1050F000007F00F283803B6B002B04D03B6BB3F14D
:10510000807F12D07AE0384B1B6803F00073B3F154
:10511000007F07D107F12403184600F00BFEBB6A9D
:10512000FB6340E30023FB633DE32F4B1B6803F06D
:105130000063B3F1006F07D107F11803184600F0C0
:1051400051FBBB69FB632EE30023FB632BE3264B80
:105150001B6803F00053B3F1005F07D107F10C03A4
:10516000184600F093FCFB68FB631CE30023FB6321
:1051700019E31D4BDB6C03F040537B631A4B1B6838
:1051800003F00403042B0CD17B6B002B09D1164BCD
:105190001B68DB0803F00303144A22FA03F3FB63E2
:1051A0001EE0114B1B6803F48073B3F5807F06D1BA
:1051B0007B6BB3F1805F02D10D4BFB6310E00A4BB8
:1051C0001B6803F40033B3F5003F06D17B6BB3F1EA
:1051D000005F02D1074BFB6302E00023FB63E2E2C6
:1051E000E1E2054BFB63DEE2004402580090D0038D
:1051F00000093D0040787D010080BB000023FB6377
:10520000D1E2D7E90023A2F580510B4340F09C8006
:10521000934B1B6D03F4E043BB63BB6BB3F5804F53
:1052200054D0BB6BB3F5804F00F28B80BB6BB3F5F2
:10523000405F00F08380BB6BB3F5405F00F281807C
:10524000BB6BB3F5005F2FD0BB6BB3F5005F78D8B5
:10525000BB6B002B04D0BB6BB3F5805F12D070E04A
:105260007F4B1B6803F00073B3F1007F07D107F198
:105270002403184600F05EFDBB6AFB6393E2002343
:10528000FB6390E2764B1B6803F00063B3F1006FA1
:1052900007D107F11803184600F0A4FABB69FB63B5
:1052A00081E20023FB637EE26D4B1B6803F0005339
:1052B000B3F1005F07D107F10C03184600F0E6FBDD
:1052C000FB68FB636FE20023FB636CE2644BDB6C07
:1052D00003F040537B63624B1B6803F00403042B11
:1052E0000CD17B6B002B09D15D4B1B68DB0803F0F5
:1052F00003035C4A22FA03F3FB631EE0584B1B686E
:1053000003F48073B3F5807F06D17B6BB3F1805FCC
:1053100002D1554BFB6310E0514B1B6803F4003383
:10532000B3F5003F06D17B6BB3F1005F02D14F4B69
:10533000FB6302E00023FB6335E234E24C4BFB638A
:1053400031E20023FB632EE2D7E90023A2F50051EE
:105350000B4340F08F80424B1B6D03F4E023BB6393
:10536000BB6BB3F5A02F6BD0BB6BB3F5A02F74D87C
:10537000BB6BB3F5802F56D0BB6BB3F5802F6CD8C9
:10538000BB6BB3F5403F3BD0BB6BB3F5403F64D83C
:10539000BB6BB3F5003F21D0BB6BB3F5003F5CD8CE
:1053A000BB6B002B04D0BB6BB3F5803F04D054E043
:1053B000FEF74CFAF863F6E1294B1B6803F0006333
:1053C000B3F1006F07D107F11803184600F00AFA8D
:1053D000FB69FB63E7E10023FB63E4E1204B1B680F
:1053E00003F00053B3F1005F07D107F10C03184637
:1053F00000F04CFB3B69FB63D5E10023FB63D2E18A
:10540000174B1B6803F00403042B09D1144B1B68D2
:10541000DB0803F00303134A22FA03F3FB63C2E140
:105420000023FB63BFE10E4B1B6803F48073B3F5ED
:10543000807F02D10C4BFB63B5E10023FB63B2E13B
:10544000074B1B6803F40033B3F5003F02D1074B51
:10545000FB63A8E10023FB63A5E10023FB63A2E15A
:10546000004402580090D00300093D0040787D01BF
:105470000080BB00D7E90023A2F500210B4373D1C4
:105480009C4B9B6D03F44033BB63BB6BB3F5003F98
:105490002FD0BB6BB3F5003F63D8BB6B002B04D0A0
:1054A000BB6BB3F5803F12D05BE0924B1B6803F0FF
:1054B0000063B3F1006F07D107F11803184600F03D
:1054C00091F9BB69FB636EE10023FB636BE1894BE0
:1054D0001B6803F00053B3F1005F07D107F10C0321
:1054E000184600F0D3FA7B69FB635CE10023FB63A1
:1054F00059E1804BDB6C03F040537B637D4B1B68B1
:1055000003F00403042B0CD17B6B002B09D1794BE6
:105510001B68DB0803F00303774A22FA03F3FB63FB
:105520001EE0744B1B6803F48073B3F5807F06D1D3
:105530007B6BB3F1805F02D1704BFB6310E06D4B6E
:105540001B6803F40033B3F5003F06D17B6BB3F166
:10555000005F02D16A4BFB6302E00023FB6322E1A0
:1055600021E10023FB631EE1D7E90023A2F580318E
:105570000B4333D15F4BDB6C03F48033BB63BB6BFA
:10558000002B04D0BB6BB3F5803F12D023E0594B06
:105590001B6803F00073B3F1007F07D107F1240308
:1055A000184600F0C7FBBB6AFB63FCE00023FB630B
:1055B000F9E0504B1B6803F00063B3F1006F07D1B3
:1055C00007F11803184600F00DF93B6AFB63EAE0A7
:1055D0000023FB63E7E00023FB63E4E0D7E900235B
:1055E000A2F580410B4340F08D80424B9B6D03F050
:1055F000E043BB63BB6BB3F1A04F6BD0BB6BB3F1AC
:10560000A04F74D8BB6BB3F1804F56D0BB6BB3F1D6
:10561000804F6CD8BB6BB3F1405F3BD0BB6BB3F139
:10562000405F64D8BB6BB3F1005F21D0BB6BB3F1BB
:10563000005F5CD8BB6B002B04D0BB6BB3F1805F09
:1056400004D054E000F0B8F8F863ACE0294B1B68D4
:1056500003F00063B3F1006F07D107F11803184698
:1056600000F0C0F8FB69FB639DE00023FB639AE058
:10567000204B1B6803F00053B3F1005F07D107F123
:105680000C03184600F002FA3B69FB638BE0002331
:10569000FB6388E0174B1B6803F00403042B09D15C
:1056A000144B1B68DB0803F00303134A22FA03F3CD
:1056B000FB6378E00023FB6375E00E4B1B6803F48B
:1056C0008073B3F5807F02D10C4BFB636BE000234A
:1056D000FB6368E0074B1B6803F40033B3F5003F3E
:1056E00002D1074BFB635EE00023FB635BE000231A
:1056F000FB6358E0004402580090D00300093D00CD
:1057000040787D01D7E90023A2F500410B4348D141
:10571000274B1B6D03F04053BB63BB6BB3F1005FC2
:105720002AD0BB6BB3F1005F38D8BB6B002B04D021
:10573000BB6BB3F1805F0DD030E01D4B1B6803F4F1
:105740000033B3F5003F02D11A4BFB632BE000237B
:10575000FB6328E0164B1B6803F00073B3F1007F76
:1057600007D107F12403184600F0E4FABB6AFB6393
:1057700019E00023FB6316E00D4B1B6803F0006388
:10578000B3F1006F07D107F11803184600F02AF8AB
:10579000FB69FB6307E00023FB6304E00023FB637A
:1057A00001E00023FB63FB6B18464037BD4680BD1C
:1057B0000044025840787D0180B500AFFEF716F82E
:1057C0000246064B1B6A1B0903F007030449CB5C26
:1057D00003F01F0322FA03F3184680BD0044025869
:1057E000708C000880B489B000AF7860A14B9B6AD0
:1057F00003F00303BB619F4B9B6A1B0B03F03F034A
:105800007B619C4BDB6A1B0903F001033B61994BF5
:10581000DB6BDB08C3F30C033A6902FB03F307EE0F
:10582000903AF8EE677AC7ED037A7B69002B00F0B7
:105830001181BB69022B00F08380BB69022B00F24F
:10584000A180BB69002B03D0BB69012B56D099E026
:10585000884B1B6803F02003002B2DD0854B1B6861
:10586000DB0803F00303844A22FA03F3BB60BB683E
:1058700007EE903AF8EE676A7B6907EE903AF8EE29
:10588000677A86EEA77A7B4B9B6BC3F3080307EE20
:10589000903AF8EE676A97ED036ADFED785AC6EE44
:1058A000257A76EEA77AF7EE006A77EEA67A67EEAB
:1058B000277AC7ED077A87E07B6907EE903AF8EE22
:1058C000677ADFED6F6A86EEA77A6A4B9B6BC3F34C
:1058D000080307EE903AF8EE676A97ED036ADFED8A
:1058E000675AC6EE257A76EEA77AF7EE006A77EE6B
:1058F000A67A67EE277AC7ED077A65E07B6907EE3F
:10590000903AF8EE677ADFED5F6A86EEA77A594B38
:105910009B6BC3F3080307EE903AF8EE676A97EDC6
:10592000036ADFED565AC6EE257A76EEA77AF7EED1
:10593000006A77EEA67A67EE277AC7ED077A43E02A
:105940007B6907EE903AF8EE677ADFED4F6A86EEF4
:10595000A77A484B9B6BC3F3080307EE903AF8EE27
:10596000676A97ED036ADFED455AC6EE257A76EE53
:10597000A77AF7EE006A77EEA67A67EE277AC7ED88
:10598000077A21E07B6907EE903AF8EE677ADFED5F
:105990003D6A86EEA77A374B9B6BC3F3080307EE8D
:1059A000903AF8EE676A97ED036ADFED345AC6EE77
:1059B000257A76EEA77AF7EE006A77EEA67A67EE9A
:1059C000277AC7ED077A00BF2A4B9B6B5B0A03F06F
:1059D0007F0307EE903AF8EE677AB7EE007A37EE7B
:1059E000877AD7ED076AC6EE877AFCEEE77A17EE7C
:1059F000902A7B681A601F4B9B6B1B0C03F07F0384
:105A000007EE903AF8EE677AB7EE007A37EE877ACB
:105A1000D7ED076AC6EE877AFCEEE77A17EE902A92
:105A20007B685A60134B9B6B1B0E03F07F0307EEE2
:105A3000903AF8EE677AB7EE007A37EE877AD7EDCC
:105A4000076AC6EE877AFCEEE77A17EE902A7B6843
:105A50009A6008E07B6800221A607B6800225A6026
:105A60007B6800229A6000BF2437BD465DF8047B46
:105A7000704700BF004402580090D0030000004669
:105A80000024744C0024744A20BCBE4B80B489B0FE
:105A900000AF7860A14B9B6A03F00303BB619F4B8F
:105AA0009B6A1B0D03F03F037B619C4BDB6A1B0A67
:105AB00003F001033B61994B5B6CDB08C3F30C0300
:105AC0003A6902FB03F307EE903AF8EE677AC7ED06
:105AD000037A7B69002B00F01181BB69022B00F077
